{
  "contractName": "Adoption",
  "abi": [
    {
      "constant": true,
      "inputs": [
        {
          "internalType": "uint256",
          "name": "",
          "type": "uint256"
        }
      ],
      "name": "adopters",
      "outputs": [
        {
          "internalType": "address",
          "name": "",
          "type": "address"
        }
      ],
      "payable": false,
      "stateMutability": "view",
      "type": "function"
    },
    {
      "constant": false,
      "inputs": [
        {
          "internalType": "uint256",
          "name": "petId",
          "type": "uint256"
        }
      ],
      "name": "adopt",
      "outputs": [
        {
          "internalType": "uint256",
          "name": "",
          "type": "uint256"
        }
      ],
      "payable": true,
      "stateMutability": "payable",
      "type": "function"
    },
    {
      "constant": true,
      "inputs": [],
      "name": "getAdopters",
      "outputs": [
        {
          "internalType": "address[16]",
          "name": "",
          "type": "address[16]"
        }
      ],
      "payable": false,
      "stateMutability": "view",
      "type": "function"
    }
  ],
  "bytecode": "0x608060405234801561001057600080fd5b506102c6806100206000396000f3fe6080604052600436106100345760003560e01c80633de4eb171461003957806343ae80d31461008c5780638588b2c514610107575b600080fd5b34801561004557600080fd5b5061004e610149565b6040518082601060200280838360005b8381101561007957808201518184015260208101905061005e565b5050505090500191505060405180910390f35b34801561009857600080fd5b506100c5600480360360208110156100af57600080fd5b81019080803590602001909291905050506101ca565b604051808273ffffffffffffffffffffffffffffffffffffffff1673ffffffffffffffffffffffffffffffffffffffff16815260200191505060405180910390f35b6101336004803603602081101561011d57600080fd5b81019080803590602001909291905050506101fd565b6040518082815260200191505060405180910390f35b61015161026e565b60006010806020026040519081016040528092919082601080156101c0576020028201915b8160009054906101000a900473ffffffffffffffffffffffffffffffffffffffff1673ffffffffffffffffffffffffffffffffffffffff1681526020019060010190808311610176575b5050505050905090565b600081601081106101d757fe5b016000915054906101000a900473ffffffffffffffffffffffffffffffffffffffff1681565b60008082101580156102105750600f8211155b61021957600080fd5b336000836010811061022757fe5b0160006101000a81548173ffffffffffffffffffffffffffffffffffffffff021916908373ffffffffffffffffffffffffffffffffffffffff160217905550819050919050565b60405180610200016040528060109060208202803883398082019150509050509056fea265627a7a7231582009cb529939dd9865cc8256a20517b8932537ca755d3c994784b80e93cc92fed864736f6c63430005100032",
  "source": "pragma solidity ^0.5.0;\r\n\r\ncontract Adoption{\r\n\taddress[16] public adopters;\r\n\t\r\n\tfunction adopt(uint petId) public payable returns(uint){  //분양하는 펫은 15마리\r\n\t\trequire(petId >= 0 && petId <= 15);\r\n\t\tadopters[petId] = msg.sender;\r\n\t\treturn petId;\r\n\t\t}\r\n\t\r\n\tfunction getAdopters() public view returns(address[16] memory){\r\n\t\treturn adopters;\r\n\t}\t\r\n}\t\r\n\t",
  "sourcePath": "D:/dev/workspace.dev/mypet/WebContent/solidity/contracts/Adoption.sol",
  "compiler": {
    "name": "solc",
    "version": "0.5.16+commit.9c3226ce.Emscripten.clang"
  },
  "schemaVersion": "3.3.2",
  "updatedAt": "2020-12-09T01:28:52.617Z",
  "networkType": "ethereum",
  "devdoc": {
    "methods": {}
  },
  "userdoc": {
    "methods": {}
  }
}