{
  "contractName": "Fundding",
  "abi": [
    {
      "inputs": [
        {
          "internalType": "uint256",
          "name": "_duration",
          "type": "uint256"
        },
        {
          "internalType": "uint256",
          "name": "_goalAmount",
          "type": "uint256"
        }
      ],
      "stateMutability": "nonpayable",
      "type": "constructor"
    },
    {
      "inputs": [],
      "name": "creator",
      "outputs": [
        {
          "internalType": "address payable",
          "name": "",
          "type": "address"
        }
      ],
      "stateMutability": "view",
      "type": "function"
    },
    {
      "inputs": [],
      "name": "deadline",
      "outputs": [
        {
          "internalType": "uint256",
          "name": "",
          "type": "uint256"
        }
      ],
      "stateMutability": "view",
      "type": "function"
    },
    {
      "inputs": [],
      "name": "ended",
      "outputs": [
        {
          "internalType": "bool",
          "name": "",
          "type": "bool"
        }
      ],
      "stateMutability": "view",
      "type": "function"
    },
    {
      "inputs": [],
      "name": "goalAmount",
      "outputs": [
        {
          "internalType": "uint256",
          "name": "",
          "type": "uint256"
        }
      ],
      "stateMutability": "view",
      "type": "function"
    },
    {
      "inputs": [
        {
          "internalType": "uint256",
          "name": "",
          "type": "uint256"
        }
      ],
      "name": "investors",
      "outputs": [
        {
          "internalType": "address payable",
          "name": "addr",
          "type": "address"
        },
        {
          "internalType": "uint256",
          "name": "amount",
          "type": "uint256"
        }
      ],
      "stateMutability": "view",
      "type": "function"
    },
    {
      "inputs": [],
      "name": "numInvestors",
      "outputs": [
        {
          "internalType": "uint256",
          "name": "",
          "type": "uint256"
        }
      ],
      "stateMutability": "view",
      "type": "function"
    },
    {
      "inputs": [],
      "name": "status",
      "outputs": [
        {
          "internalType": "string",
          "name": "",
          "type": "string"
        }
      ],
      "stateMutability": "view",
      "type": "function"
    },
    {
      "inputs": [],
      "name": "totalAmount",
      "outputs": [
        {
          "internalType": "uint256",
          "name": "",
          "type": "uint256"
        }
      ],
      "stateMutability": "view",
      "type": "function"
    },
    {
      "inputs": [],
      "name": "fund",
      "outputs": [],
      "stateMutability": "payable",
      "type": "function"
    },
    {
      "inputs": [],
      "name": "checkGoalReached",
      "outputs": [],
      "stateMutability": "nonpayable",
      "type": "function"
    }
  ],
  "bytecode": "0x608060405234801561001057600080fd5b506040516109e53803806109e58339818101604052604081101561003357600080fd5b810190808051906020019092919080519060200190929190505050336000806101000a81548173ffffffffffffffffffffffffffffffffffffffff021916908373ffffffffffffffffffffffffffffffffffffffff160217905550814201600281905550806005819055506040518060400160405280600781526020017f46756e64696e6700000000000000000000000000000000000000000000000000815250600390805190602001906100e992919061011c565b506000600460006101000a81548160ff0219169083151502179055506000600181905550600060068190555050506101c1565b828054600181600116156101000203166002900490600052602060002090601f016020900481019282601f1061015d57805160ff191683800117855561018b565b8280016001018555821561018b579182015b8281111561018a57825182559160200191906001019061016f565b5b509050610198919061019c565b5090565b6101be91905b808211156101ba5760008160009055506001016101a2565b5090565b90565b610815806101d06000396000f3fe6080604052600436106100915760003560e01c8063200d2ed211610059578063200d2ed2146101895780632636b9451461021957806329dcb0cf146102445780633feb5f2b1461026f578063b60d4288146102f157610091565b806301cb3b201461009657806302d05d3f146100ad57806312fa6feb14610104578063132ae5e9146101335780631a39d8ef1461015e575b600080fd5b3480156100a257600080fd5b506100ab6102fb565b005b3480156100b957600080fd5b506100c2610564565b604051808273ffffffffffffffffffffffffffffffffffffffff1673ffffffffffffffffffffffffffffffffffffffff16815260200191505060405180910390f35b34801561011057600080fd5b50610119610589565b604051808215151515815260200191505060405180910390f35b34801561013f57600080fd5b5061014861059c565b6040518082815260200191505060405180910390f35b34801561016a57600080fd5b506101736105a2565b6040518082815260200191505060405180910390f35b34801561019557600080fd5b5061019e6105a8565b6040518080602001828103825283818151815260200191508051906020019080838360005b838110156101de5780820151818401526020810190506101c3565b50505050905090810190601f16801561020b5780820380516001836020036101000a031916815260200191505b509250505060405180910390f35b34801561022557600080fd5b5061022e610646565b6040518082815260200191505060405180910390f35b34801561025057600080fd5b5061025961064c565b6040518082815260200191505060405180910390f35b34801561027b57600080fd5b506102a86004803603602081101561029257600080fd5b8101908080359060200190929190505050610652565b604051808373ffffffffffffffffffffffffffffffffffffffff1673ffffffffffffffffffffffffffffffffffffffff1681526020018281526020019250505060405180910390f35b6102f9610696565b005b6000809054906101000a900473ffffffffffffffffffffffffffffffffffffffff1673ffffffffffffffffffffffffffffffffffffffff163373ffffffffffffffffffffffffffffffffffffffff161461035457600080fd5b600460009054906101000a900460ff161561036e57600080fd5b60025442101561037d57600080fd5b60055460065410610453576040518060400160405280601581526020017f43616d706169676e20537563636565646564203a290000000000000000000000815250600390805190602001906103d392919061073a565b506001600460006101000a81548160ff0219169083151502179055506000809054906101000a900473ffffffffffffffffffffffffffffffffffffffff1673ffffffffffffffffffffffffffffffffffffffff166108fc479081150290604051600060405180830381858888f1935050505061044e57600080fd5b610562565b60008090506040518060400160405280601281526020017f43616d706169676e204661696c6564203a280000000000000000000000000000815250600390805190602001906104a392919061073a565b506001600460006101000a81548160ff0219169083151502179055505b6001548111610560576007600082815260200190815260200160002060000160009054906101000a900473ffffffffffffffffffffffffffffffffffffffff1673ffffffffffffffffffffffffffffffffffffffff166108fc60076000848152602001908152602001600020600101549081150290604051600060405180830381858888f1935050505061055357600080fd5b80806001019150506104c0565b505b565b6000809054906101000a900473ffffffffffffffffffffffffffffffffffffffff1681565b600460009054906101000a900460ff1681565b60015481565b60065481565b60038054600181600116156101000203166002900480601f01602080910402602001604051908101604052809291908181526020018280546001816001161561010002031660029004801561063e5780601f106106135761010080835404028352916020019161063e565b820191906000526020600020905b81548152906001019060200180831161062157829003601f168201915b505050505081565b60055481565b60025481565b60076020528060005260406000206000915090508060000160009054906101000a900473ffffffffffffffffffffffffffffffffffffffff16908060010154905082565b600460009054906101000a900460ff16156106b057600080fd5b600060076000600160008154809291906001019190505581526020019081526020016000209050338160000160006101000a81548173ffffffffffffffffffffffffffffffffffffffff021916908373ffffffffffffffffffffffffffffffffffffffff160217905550348160010181905550806001015460066000828254019250508190555050565b828054600181600116156101000203166002900490600052602060002090601f016020900481019282601f1061077b57805160ff19168380011785556107a9565b828001600101855582156107a9579182015b828111156107a857825182559160200191906001019061078d565b5b5090506107b691906107ba565b5090565b6107dc91905b808211156107d85760008160009055506001016107c0565b5090565b9056fea26469706673582212204c89d27972e02367e944999c2e3886a883349f9668663f38c98aed87cb29844764736f6c634300060a0033",
  "immutableReferences": {},
  "source": "//SPDX-License-Identifier: UNLICENSED\r\npragma solidity ^0.6.10;\r\n\r\ncontract Fundding {\r\n\r\n    // 투자자구조체 배열\r\n    struct Investor {\r\n        address payable addr; // 투자받는 어드레스     \r\n        uint amount; // 투자액\r\n    }\r\n\r\n    address payable public creator; // 컨트랙트 소유자\r\n    uint public numInvestors; // 투자자수\t\r\n    uint public deadline; // 마감일(UnixTime)\t\r\n    string public status; // 모금활동 스테이터스\t\r\n    bool public ended; // 모금 종료여부\t\r\n    uint public goalAmount; // 목표액\t\r\n    uint public totalAmount; // 총 투자액\t\r\n    mapping (uint => Investor) public investors; // 투자자 관리를 위한 매핑\r\n\r\n    constructor (uint _duration, uint _goalAmount) public { // duration은 초단위로  60*30 => 1800초\r\n        creator = msg.sender;\r\n        deadline = now + _duration;\r\n        goalAmount = _goalAmount;\r\n        status = \"Funding\";\r\n        ended = false; // false라서 모금 가동됨\r\n        numInvestors = 0;\r\n        totalAmount = 0;\r\n\r\n    }\r\n\r\n\r\n    // 투자 시에 호출되는 함수\r\n    function fund() public payable {\r\n        // 모금이 끝났다면 처리중단\r\n        require(!ended);\r\n\r\n        Investor storage inv = investors[numInvestors++]; // 배열의 0번  +1 해주고?\r\n        inv.addr = msg.sender; // 투자자의 정보를 담는다\r\n        inv.amount = msg.value;\r\n        totalAmount += inv.amount; // 모금된 총금액\r\n    }\r\n\r\n    // 모금 성공/실패 여부에 따라 송금\r\n    function checkGoalReached() public onlyOwner { // creator만 이 함수를 실행할수 있음\r\n    // 모금이 끝났다면 처리 중단\r\n        require(!ended);\r\n\r\n        // 마감날이 지나지 않았다면 처리 중단\r\n        require(now >= deadline);\r\n\r\n        if (totalAmount >= goalAmount) {\r\n            status = \"Campaign Succeeded :)\";\r\n            ended = true; // 빠져나가기\r\n            // 컨트랙트 소유자에게 모금계좌에 있는 모든 이더를 송금한다\r\n            if (!creator.send(address(this).balance)) {\r\n            revert(); // throw\r\n            }\r\n        } else { // 목표액까지 모금 실패인 경우\r\n            uint i = 0;\r\n            status = \"Campaign Failed :(\";\r\n            ended = true; // 빠져나가기\r\n            // 각 투자자에게 투자금을 돌려줌\r\n            while (i <= numInvestors) {\r\n                if (!investors[i].addr.send(investors[i].amount)) {\r\n                    revert();\r\n                }\r\n                i++;\r\n            }\r\n        }\r\n    }\r\n\r\n    modifier onlyOwner() { // creator만 함수를 수정할수있도록하는 메소드\r\n        require(msg.sender == creator);\r\n        _;\r\n    }\r\n}\r\n\r\n\r\n",
  "sourcePath": "D:/dev/workspace.dev/myfundding/solidity/contracts/Fundding.sol",
  "compiler": {
    "name": "solc",
    "version": "0.6.10+commit.00c0fcaf.Emscripten.clang"
  },
  "schemaVersion": "3.3.2",
  "updatedAt": "2020-12-11T02:27:24.091Z",
  "devdoc": {
    "methods": {}
  },
  "userdoc": {
    "methods": {}
  }
}